:020000040800F2
:100000000050002091400008E11B0008E31B00089D
:10001000E51B0008E71B0008E91B000800000000C2
:10002000000000000000000000000000EB1B0008C2
:10003000ED1B000800000000EF1B0008F11B00088A
:10004000D9400008D9400008D9400008D94000082C
:10005000D9400008D9400008D9400008D94000081C
:10006000D9400008D9400008D9400008D94000080C
:10007000D9400008D9400008D9400008D9400008FC
:10008000D9400008D9400008D9400008D9400008EC
:10009000D9400008D9400008D9400008D9400008DC
:1000A000D9400008D9400008D9400008D9400008CC
:1000B000F51B0008D9400008D94000080D1C0008B5
:1000C000191C0008D9400008D9400008D940000890
:1000D000D9400008011C0008D9400008D940000898
:1000E000D9400008D9400008D940000800000000AD
:1000F0000000000000000000000000000000000000
:0C01000000000000000000005FF808F1A3
:10010C000348044B834202D0034B03B1184770479A
:10011C007C0000207C000020000000000548064BFD
:10012C001B1AD90F01EBA301491002D0034B03B1E9
:10013C00184770477C0000207C0000200000000065
:10014C0010B5064C237843B9FFF7DAFF044B13B113
:10015C000448AFF300800123237010BD7C00002005
:10016C0000000000DC40000808B5044B1BB104493A
:10017C000448AFF30080BDE80840CFE70000000062
:10018C0080000020DC40000870B50F4B0F4DAB42D7
:10019C00A3EB050607D00024B61055F8043B013438
:1001AC009847A642F9D803F093FF094D094B5E1B03
:1001BC00AB424FEAA60606D0002455F8043B0134A6
:1001CC009847A642F9D870BDB04B0008B04B000858
:1001DC00B04B0008B44B000870B5860747D0541ECE
:1001EC00002A3ED00346CAB201E0013C39D303F8E1
:1001FC00012B9D07F9D1032C2CD9CDB205EB05258C
:10020C000F2C1A4605EB054534D9A4F1100C2CF033
:10021C000F0603F1100EB6444FEA1C1CC2E9005540
:10022C00C2E9025510327245F8D10CF1010214F0FA
:10023C000C0F03EB021204F00F0C13D0ACF10403FF
:10024C0023F003030433134442F8045B9342FBD1C1
:10025C000CF003042CB1C9B21C4403F8011BA342DB
:10026C00FBD170BD64461346002CF4D1F9E703466C
:10027C001446C0E7A446E1E770B5114E0546336855
:10028C000C46BBB12146284600F0FEF8431C014643
:10029C000CD0C41C24F00304A04205D02846611ADB
:1002AC0000F0F2F8013001D0204670BD4FF0FF3461
:1002BC00204670BD194600F0E7F83060E2E700BF59
:1002CC00D40100202DE9F843CD1C25F00305083599
:1002DC000C2D38BF0C25002D064618DBA94216D86C
:1002EC00DFF8DC8000F0CCF8D8F80420A2B114467A
:1002FC0003E0636822467BB11C4623685B1BF8D481
:10030C000B2B1FD89442636854D053600CE00C2321
:10031C0033600020BDE8F88329463046FFF7ACFF78
:10032C00431C044619D00560304600F0ABF804F1CC
:10033C000B00231D20F00700C21A1CBF1B1AA35070
:10034C00BDE8F88361199442256014BF5160C8F868
:10035C000410635163684B60E6E7D8F804701FB370
:10036C003C467F68002FFBD123683946304604EBAE
:10037C00030900F089F8814516D123683046ED1A3F
:10038C002946FFF779FF01300ED02368D8F80420F6
:10039C002B442360536883B1A34203D01A465B6895
:1003AC009C42FBD10023B0E70C233046336000F0B5
:1003BC0069F8AEE7C8F80430B6E7C8F80470B3E7DC
:1003CC00D4010020002950D038B551F8043C0C1F42
:1003DC00002BB8BFE418054600F052F8274A136802
:1003EC002BB1A3420CD92168601883422CD028462B
:1003FC0063601460BDE8384000F044B8A3420FD8E5
:10040C001A465B68002BF9D111685018844217D03A
:10041C002CD3636054602846BDE8384000F032B8F5
:10042C0011685018A04214D020D82168601883425B
:10043C00EFD118685B680844C4E900035460EAE72C
:10044C0023680B441360E6E718685B680844206077
:10045C00CDE720680144501883421160DBD1D3E909
:10046C0000040144C2E90014D5E770470C23284668
:10047C002B60BDE8384000F005B800BFD801002063
:10048C00704700BF704700BF002238B5064D0446C8
:10049C0008462A6000F00AF8431C00D038BD2B68CF
:1004AC00002BFBD0236038BDDC010020044A054939
:1004BC001368002B08BF0B46184410601846704791
:1004CC00E00100207803002080EA0102844612F04B
:1004DC00030F4FD111F0030F32D14DF8044D11F031
:1004EC00040F51F8043B0BD0A3F101329A4312F0E4
:1004FC00803F04BF4CF8043B51F8043B16D100BFBD
:10050C0051F8044BA3F101329A4312F0803FA4F14D
:10051C0001320BD14CF8043BA24312F0803F04BFD4
:10052C0051F8043B4CF8044BEAD023460CF8013B41
:10053C0013F0FF0F4FEA3323F8D15DF8044B7047EB
:10054C0011F0010F06D011F8012B0CF8012B002A29
:10055C0008BF704711F0020FBFD031F8022B12F018
:10056C00FF0F16BF2CF8022B8CF8002012F47F4FD3
:10057C00B3D1704711F8012B0CF8012B002AF9D1DB
:10058C00704700BF844641EA000313F0030349D1CE
:10059C00403A23D30B6803604B6843608B688360DD
:1005AC00CB68C3600B6903614B6943618B698361E1
:1005BC00CB69C3610B6A03624B6A43628B6A8362C9
:1005CC00CB6AC3620B6B03634B6B43638B6B8363B1
:1005DC00CB6BC36340304031403ADBD230320BD36B
:1005EC000B6803604B6843608B688360CB68C360A7
:1005FC0010301031103AF3D20C3205D351F8043BC1
:10060C0040F8043B043AF9D2043208D0D2071CBF9C
:10061C0011F8013B00F8013B01D30B8803806046C5
:10062C00704700BF082A13D38B07B1D010F0030317
:10063C00AED0C3F10403D21ADB071CBF11F8013B87
:10064C0000F8013BA4D331F8023B20F8023B9FE7B2
:10065C00043AD9D3013A11F8013B00F8013BF9D225
:10066C000B7803704B7843708B78837060467047BF
:10067C0008B410B5002A04469DB034DB4FF4027C5C
:10068C004FF00003ADF814C01B934FF6FF7C0291A2
:10069C00069120AB15D0013A0492079202A91F9A39
:1006AC000193ADF816C000F051F9421C01DA8B230E
:1006BC0023600022029B1A701DB0BDE8104001B0EF
:1006CC0070470492079202A91F9A0193ADF816C0C5
:1006DC0000F03CF9431C01DA8B2323601DB0BDE80C
:1006EC00104001B070478B234FF0FF302360F5E7CB
:1006FC000CB410B5204B00291C689CB036DB4FF0B5
:10070C0000034FF402721B934FF6FF7C029006908D
:10071C00ADF814201FAB16D001391E9A0491079125
:10072C00204602A90193ADF816C000F00FF9421C47
:10073C0001DA8B2323600022029B1A701CB0BDE8E7
:10074C00104002B070470491079120461E9A02A9EE
:10075C000193ADF816C000F0F9F8431C01DA8B23B5
:10076C0023601CB0BDE8104002B070478B234FF0E3
:10077C00FF302360F5E700BF000000202DE9F047B3
:10078C001D468F680C46AF4216460B6836D8B1F939
:10079C000CC01CF4906F0ED13D46184631462A46CB
:1007AC0000F0ECF90020A368DF1B2368A7602B4442
:1007BC002360BDE8F0874A69096902EB42025F1ABF
:1007CC0002EBD2726B1C52103B44934292BF914687
:1007DC0099461A461CF4806F804611D01146FFF7DB
:1007EC0071FD824600B33A462169FFF7CBFEA3891F
:1007FC0023F4906343F08003A38105E02F46CCE7FC
:10080C0000F03AFA824658B10AEB0703A9EB070746
:10081C00A760C4F810A02F46C4F814902360BCE75E
:10082C0040462169FFF7CEFD0C22A3894FF0FF3023
:10083C0043F04003C8F80020A381BAE72DE9F04F3C
:10084C00936883B0924617680190002B76D04FF0D6
:10085C00000B0C465D468B680A6848E0B4F90CC086
:10086C001CF4906F2FD0D4E90403A2EB000803EB27
:10087C00430202EBD27208F1010152102944914259
:10088C0092BF914689460A461CF4806F39D01146B6
:10089C000198FFF717FD064600283DD04246216916
:1008AC00FFF770FEA28922F4906242F08002A281CE
:1008BC0006EB0800A9EB08022661A8462E46A260AA
:1008CC002060C4F814903246594600F057F9DAF813
:1008DC000810A3682268A3EB08033244491BA360E9
:1008EC002260CAF8081049B3D7E900B50837984612
:1008FC001046002DF8D09D421E46AFD2A8462E467B
:10090C00E1E70146019800F0B7F906460028CFD17F
:10091C0001982169FFF756FD0C21A389019D43F035
:10092C00400329600022A3814FF0FF300023CAF856
:10093C000820CAF8043003B0BDE8F08F0020002373
:10094C00CAF8043003B0BDE8F08F00BF2DE9F04FBA
:10095C001C468B8989461D06824693469DB003D55D
:10096C000B69002B00F0EE80002343F22002099368
:10097C009BF8003001277C4E0394ADF82920002B06
:10098C0071D05D4603E015F8013F002B73D0252B89
:10099C00F9D1B5EB0B0471D12A78002A63D000236E
:1009AC004FF0FF320135CDE90523049307938DF801
:1009BC0053301A9306E02546049B801B07FA00F07F
:1009CC00034304932C46052214F8011B304600F017
:1009DC0059FBA3460028EED1049BD90644BF202224
:1009EC008DF853201A0748BF2B22297848BF8DF861
:1009FC0053202A294FD1039A1168043200290392FB
:100A0C007BDB079169782E295BD0584C032220465A
:100A1C0000F038FB38B14022049B001B824013438A
:100A2C000BF1010B04931BF8011B062250488DF8A7
:100A3C00281000F027FB002865D04E4B002B55D01A
:100A4C0003A900914A4650464B4B04A9AFF30080D2
:100A5C008046B8F1FF3F06D0099B434409939BF8AD
:100A6C000030002B8DD1B9F80C305B0679D4099885
:100A7C001DB0BDE8F08FB5EB0B04F4D023465A46FD
:100A8C0049465046FFF77AFE0130ECD0099B2A7894
:100A9C002344099381E7A1F13002092A88BFAB46B0
:100AAC00B1D8079B00E00134217803EB830302EB00
:100ABC004303A1F13002092AF5D92E29A346079345
:100ACC00A3D19BF801102A2927D1039B0BF102001B
:100ADC001A680433002A0393B8BF4FF0FF339BF816
:100AEC00021005928346B8BF05938EE7039B07332C
:100AFC0023F0070308330393AEE7494243F00203A4
:100B0C00079104937EE703A900914A4650461A4B7D
:100B1C0004A900F075F980469BE70023A1F130028F
:100B2C00092A0BF1010B05933FF66FAF1BF8011F60
:100B3C0003EB830302EB4303A1F13002092AF5D93D
:100B4C00059362E74021FFF7BDFBC9F80000C9F827
:100B5C00100018B14023C9F8143005E70C23CAF86B
:100B6C0000304FF0FF3083E76C4B0008744B0008EB
:100B7C00784B0008000000008907000888420ED955
:100B8C008B1883420BD900EB020C002A6DD0624605
:100B9C0013F801CD994202F801CDF9D170470F2A13
:100BAC000FD8034602F1FF3C002A5ED00CF1010C79
:100BBC00013B8C4411F8012B614503F8012FF9D14D
:100BCC00704740EA01039B0750D1A2F1100370B5A6
:100BDC0001F1200C23F00F0501F1100E00F11004AF
:100BEC00AC441B095EF8105C0EF1100E44F8105C5E
:100BFC005EF81C5C103444F81C5C5EF8185C44F81D
:100C0C00185C5EF8145CE64544F8145CEAD10133D8
:100C1C0012F00C0F01EB031102F00F0400EB0313A5
:100C2C0028D08E46043C24F003064FEA940C1E4454
:100C3C001C1F5EF8045B44F8045FB442F9D10CF15C
:100C4C00010402F0030203EB840301EB840102F1C3
:100C5C00FF3C4AB10CF1010C013B8C4411F8012B07
:100C6C00614503F8012FF9D170BD7047034602F1BD
:100C7C00FF3C9BE72246EAE72DE9F041144641B3DD
:100C8C000AB306460D4600F049FA8442074602D8DC
:100C9C00B4EB500F13D821463046FFF713FB8046B8
:100CAC0050B1BC422246294628BF3A46FFF76AFC9F
:100CBC0029463046FFF786FB4046BDE8F081A84642
:100CCC004046BDE8F081A046FFF77CFB4046BDE8FE
:100CDC00F0811146BDE8F041FFF7F4BA2DE9F84F69
:100CEC0092461F460A698B680C469A42B8BF1A4650
:100CFC00CAF8002091F843300646DDF8289013B16D
:100D0C000132CAF80020226891065FD5DAF800306B
:100D1C000233CAF80030226812F0060F11461DD1BA
:100D2C00E1689942D8BF114618DD4FF0000804F174
:100D3C00190B05E0E568DAF80030ED1A45450CDDD5
:100D4C0001235A4639463046C847013008F101089C
:100D5C00F0D14FF0FF30BDE8F88F216894F84330A4
:100D6C00003B18BF01238A060AD53021E21882F80D
:100D7C00431094F845105A1C2244023382F8431055
:100D8C003946304604F14302C8470130E1D0D4E97A
:100D9C0002202368DAF8005003F00603042B2169C3
:100DAC001BD08A4220DD4FF00008521A90440025D7
:100DBC001A3401E0454517DA0123224639463046FC
:100DCC00C847013005F10105F4D1C2E712F0060F56
:100DDC000DD0003B18BF0123D2E7401B8A4220EA0A
:100DEC00E078E2DC0028E2DC0020BDE8F88FE16866
:100DFC00DAF800309942D8BF114696DCAEE700BF56
:100E0C002DE9F04717460A7E84B00C4606469846F4
:100E1C000C9D01F1430C002A35D0A2F15803D9B234
:100E2C00202969D8202B67D8DFE813F0E60066008C
:100E3C006600660066006600660066006600660076
:100E4C006600AC007000660066006600660070000C
:100E5C00660066006600660021008300C60066001E
:100E6C006600B6006600830066006600EC002B6826
:100E7C002268181D6169286010061B6802D452068E
:100E8C0000F1E08019600023E14623613B462146D6
:100E9C003046CDF8008003AAFFF720FF013020D0A8
:100EAC004A46394630462369C047013019D0236879
:100EBC00E0689B07DDF80C9018D5484516DD002539
:100ECC0004F1190A04E0E068A0EB0903AB420DDD64
:100EDC000123524639463046C047013005F1010521
:100EEC00F1D14FF0FF3004B0BDE8F0874845B8BFF2
:100EFC00484604B0BDE8F087012084F8422004F194
:100F0C0042090023206184F84330BFE72A68236834
:100F1C00111D1806296002D4590600F1958010683D
:100F2C00014600286268C0F293804FF00A0E5348C5
:100F3C0015E020682B6810F0800F53F8041B02D1C9
:100F4C00400648BF89B26F2A14BF4FF00A0E4FF00B
:100F5C00080E4A482B600023626884F84330002A4C
:100F6C00A26051DB236823F00403236000294BD1DA
:100F7C00002A7BD1E146BEF1080F56D0ACEB090339
:100F8C00236183E72A680120116804322A6004F186
:100F9C00420984F84210B4E72B6800211A1D2A601C
:100FAC00D3F800906268484600F06CF8002863D0D3
:100FBC00A0EB09006060A4E7236843F020032360E2
:100FCC0078222F4884F845202A6813F0800F52F8B5
:100FDC00041B03D113F0400F18BF89B22A60DA0743
:100FEC0044BF43F02003236019B9236823F0200386
:100FFC0023604FF0100EAEE75823204884F845309C
:10100C002368E1E72368DBE77546E146B1FBF5F3BE
:10101C000A4605FB131A194610F80A30AA4209F8B9
:10102C00013DF3D2BEF1080FA8D12368DD07A5D589
:10103C00626823699A42A1DC302309F1FF3989F8EF
:10104C0000309BE719801EE7B2F90010084668E7EC
:10105C002D20002AA26084F8430002DB23F0040355
:10106C0023600A250548AE464942CEE7037804F1D1
:10107C00420984F842307EE7606842E7804B000802
:10108C00944B00085FFA81FC810744D00346511E43
:10109C0022B909E09A0709D0013905D3184602781C
:1010AC0001336245F6D1704700207047184603297A
:1010BC000CD80029F8D00346014401E08B42F3D050
:1010CC00184613F8012B6245F8D1704710B50CEB9C
:1010DC000C24024604EB044402E00439032915D91C
:1010EC00104652F8043B6340A3F1013E2EEA030381
:1010FC0013F0803FF1D00346014401E08B4208D04D
:10110C00184613F8012B6245F8D110BD1046002982
:10111C00F1D1002010BD1146C9E700BF51F8043CC5
:10112C00181F002BBCBF0B58C0187047A0F1200330
:10113C005E2B94BF034620230620034A203BDBB2E0
:10114C0000FB0320704700BFF4460008A0F1200309
:10115C005E2B88BF2020034B2038C0B203EB00105D
:10116C00704700BF0441000800234FF00131064ACC
:10117C0013609380054A13609380054A1160918037
:10118C00044A136093807047EA010020E4010020B8
:10119C0000020020FA010020052808B50BD8074BE7
:1011AC0003EBC002918853F8300000F09FFF003829
:1011BC0018BF012008BD0120FCE700BF0C4B000844
:1011CC002DE9F0410026B0461C4D1D4C1D4FF0B2D0
:1011DC00FFF7E2FF15F8012B012A10D0022A21D0CB
:1011EC0042BB18B90123207005F8013C0136062ECC
:1011FC0004F1010407F10107E9D1BDE8F08160B900
:10120C0023780133DBB2012B2370EFD9022305F8CD
:10121C00013C0D4B38709A55E8E7002305F8013C6A
:10122C002370E3E70128E1D10023387005F8013C75
:10123C002370DBE705F8018CD8E700BFEA0100203A
:10124C00E401002000020020FA010020F8B500247F
:10125C0026462A4D15F8013B012B1BD1631E042B8E
:10126C0004D8DFE803F01C2936434700012000F0C6
:10127C0089FCB0FA80F107464909012000F062FCB4
:10128C001F49204B002F18BF19461F48FFF71CF9A8
:10129C0005F8016C0134E4B2062CDBD1F8BD022058
:1012AC0000F070FCB0FA80F107464909022000F00A
:1012BC0049FC1649164BE5E7032000F063FCB0FA35
:1012CC0080F107464909032000F03CFC1149124B00
:1012DC00D8E7042000F056FCB0FA80F10746490923
:1012EC00042000F02FFC0D490D4BCBE700F056FC11
:1012FC000C49CAE700F060FC0B49C6E7FA01002074
:10130C003D4900082E4900085000002058490008AB
:10131C004B490008744900086449000892490008C8
:10132C0083490008A0490008AC490008F0B5002525
:10133C0087B0184B04959A69012442F004029A6113
:10134C009A694FF4704702F004020092009A9A696D
:10135C00114E42F008029A619B69304603F0080373
:10136C000193019B022302A90593CDE9027400F0BD
:10137C00E9FD22463946304600F0BEFE40F21F130E
:10138C00064802A9CDE90235049400F0DBFD07B054
:10139C00F0BD00BF00100240000C014000080140ED
:1013AC00013808B509284DD8DFE800F0050F151CE9
:1013BC0022292F363C4426492648FFF785F801217F
:1013CC000120BDE8084000F0BDBB23492148FFF7D0
:1013DC007BF80021F4E721491E48FFF775F801213D
:1013EC000220EEE71E491B48FFF76EF80021F7E7D5
:1013FC001C491848FFF768F801210320E1E71A4956
:10140C001448FFF761F80021F7E718491148FFF776
:10141C005BF801210420D4E715490E48FFF754F876
:10142C000021F7E713490B48FFF74EF8BDE80840D9
:10143C0000F0B4BB10490748FFF746F8BDE8084078
:10144C0000F0BABB0D490348BDE80840FFF73CB8B3
:10145C00B949000850000020C3490008CE490008D3
:10146C00D6490008DF490008EA490008F649000897
:10147C00004A00080B4A0008134A00081C4A0008DE
:10148C0008B502680B4B9A4212D10B4B1878431ECD
:10149C00092B08D8FFF784FFBDE808400122064954
:1014AC00064802F0DCBD06490648FFF70DF8F3E7E5
:1014BC0008BD00BF00380140F501002008020020E3
:1014CC001C4A0008500000200368B3F1804F05D17E
:1014DC00034A13680A331360FFF772BE704700BFEC
:1014EC00F001002010B5044686B01022002102A89D
:1014FC00FEF772FE2268194B9A422DD103F5DE33AA
:10150C00DA69032442F40012DA61DA69144802F44D
:10151C0000120092009A9A6902A942F008029A619C
:10152C009B69C02203F008030193019B12230594CD
:10153C00CDE9022300F006FD002221461F2000F019
:10154C0045FC1F2000F072FC20200022214600F0F8
:10155C003DFC202000F06AFC06B010BD0054004099
:10156C00000C014010B5044686B01022002102A8E0
:10157C00FEF732FE22681B4B9A4230D103F55843DA
:10158C009A69194842F480429A619A6902A902F454
:10159C0080420092009A9A69002442F004029A61F7
:1015AC009B694FF4007203F004030193019B022327
:1015BC00CDE902230323059300F0C4FC4FF48063B0
:1015CC00094802A9CDE90234049400F0BBFC2520A3
:1015DC002246012100F0FAFB252000F027FC06B082
:1015EC0010BD00BF0038014000080140036807B57A
:1015FC00B3F1804F15D103F50433DA69022142F0BF
:10160C000102DA61DB69002203F0010301931C2063
:10161C00019B00F0DBFB1C2003B05DF804EB00F039
:10162C0005BC03B05DF804FB72B60322014B1A70C3
:10163C00FEE700BFF401002010B590B01422002189
:10164C0008A8FEF7C9FD1422002101A8FEF7C4FD6D
:10165C0002244FF480330122CDE90D43CDE906235A
:10166C004FF4E01306A80F9301F01EFE08B1FFF72C
:10167C00DBFF0F23CDE901344FF480630390CDE9F8
:10168C000430214601A801F0D1FF0028EFD110B0A1
:10169C0010BD000008B50A480A4A0B4BC0E90023EC
:1016AC0000234FF48042C0E90233C0E90423C0E9AF
:1016BC00073300F015FE08B1FFF7B6FF08BD00BFF9
:1016CC009802002000540040801A0600F8B500F083
:1016DC0035FBFFF7B1FFFFF729FEFFF7DBFF00F04B
:1016EC00D3FA00F099FA00F007FAFFF73DFD00F08D
:1016FC009DF800F04FF940F2DC5000F043FB012262
:10170C00104B114911481A70FEF7DEFE10490F48B4
:10171C0000F068F90E4F0D4EFFF798FD00240C4DAC
:10172C000134E4B2204600F02DFA042C05F8010B2C
:10173C00F6D13046394600F055F9642000F022FB12
:10174C00EAE700BFF4010020294A000850000020FD
:10175C00F60100201FB500238DF80C3064238DF8A2
:10176C000D0000937821022303AA034800F060FEC9
:10177C0005B05DF804FB00BF980200201FB54023A4
:10178C008DF80C3064238DF80D0000937821022322
:10179C0003AA034800F04CFE05B05DF804FB00BF43
:1017AC009802002010B50446A1F15000C0B2FFF71A
:1017BC00D1FF04F00F00FFF7CDFF200940F010001F
:1017CC00BDE81040FFF7C6BF30B5B024154DA5B02D
:1017DC002046FFF7BFFF0020FFF7BCFF1020FFF7EC
:1017EC00B9FF802200212846FEF7F6FC4023802218
:1017FC0029460DF10D008DF80C30FEF7C3FE642365
:10180C000134009378218123074803AAE4B200F045
:10181C000FFEB82CDCD10021084625B0BDE83040C5
:10182C00FFF7C0BFEC0200209802002008B564202E
:10183C0000F0A8FAAE20FFF78DFF2020FFF78AFFFB
:10184C000020FFF787FF4020FFF784FFA120FFF760
:10185C0081FFC820FFF77EFFA620FFF77BFFA820A3
:10186C00FFF778FF3F20FFF775FFD320FFF772FFDC
:10187C000020FFF76FFFD520FFF76CFF8020FFF7EC
:10188C0069FFD920FFF766FFF120FFF763FFDA202D
:10189C00FFF760FF1220FFF75DFFDB20FFF75AFF19
:1018AC004020FFF757FF8D20FFF754FF1420FFF760
:1018BC0051FFA420FFF74EFFA620FFF74BFFAF20F0
:1018CC00FFF748FFBDE80840FFF77EBF70B505463F
:1018DC0010460E46FFF72AFC314604462846FFF711
:1018EC0061FF651E053415F8010FFFF747FFA54290
:1018FC00F9D170BD70B504460D46561E16F8012F71
:10190C0002B970BD7A2C82BF0235EDB20024072DCE
:10191C00F7D8204629460634FFF7D8FFE4B2EDE7A6
:10192C002DE9F041074610460E46FFF70FFC3146F5
:10193C0005463846FFF736FF6C1E05F1070814F80C
:10194C00010FFFF71BFF4445F9D1711C3846C9B292
:10195C00FFF728FF0F3514F8010FFFF70FFFAC420C
:10196C00F9D1BDE8F08170B504460D46561E16F847
:10197C00012F02B970BD782C82BF0235EDB2002464
:10198C00062DF7D8204629460834FFF7C9FFE4B2E4
:10199C00EDE7000008B5FFF717FF002110200C4AF7
:1019AC00FFF7E1FF042110200A4AFFF7DCFF0421B6
:1019BC001820094AFFF79EFF05211220074AFFF75E
:1019CC0099FFBDE8084007211E20054AFFF792BF8A
:1019DC00364A0008414A00084B4A0008594A000898
:1019EC006A4A00082DE9F047384A8CB002AC05462B
:1019FC000E460FCA84E80F00FFF7E6FE0021344ABA
:101A0C000846FFF777FF2B461521324A06A8FEF74A
:101A1C006FFE0121002006AAFFF76CFF4FF0000AB1
:101A2C002D4FDFF8B880DFF8B89016F80A1054F88C
:101A3C00043B00290CBF3A4642460AF10105CDE9A8
:101A4C00003215212B464A4606A8FEF751FE5FFAD6
:101A5C008AF0BAF1010F4FEA801007D8022106AACA
:101A6C0000F0C000FFF746FFAA46DEE780380321EE
:101A7C0006AA00F0C000FFF73DFF042DF4D1294663
:101A8C000020184AFFF736FF05210020164AFFF701
:101A9C0031FF164B15211A684FF47A7306A8B2FB66
:101AAC00F3F3134AFEF724FE06AA06210020FFF7E3
:101ABC0021FF104906A8FEF707FD0721002006AA02
:101ACC00FFF718FF0CB0BDE8F08700BFF44000082A
:101ADC00734A00088E4A0008184A00086F4A00082A
:101AEC00964A00089F4A0008B64A0008F0010020F8
:101AFC00CF4A0008E14A000810B5104C01224FF4FF
:101B0C008051204600F0F8FA01224FF40051204693
:101B1C0000F0F2FA01224FF48041204600F0ECFA7A
:101B2C0001224FF40041204600F0E6FA0022044B5B
:101B3C001A705A709A70DA7010BD00BF000C014018
:101B4C006C03002038B5431E032B04460D4612D8F7
:101B5C00831EDBB2022B96BF074A4FF4805132F83A
:101B6C0013106A1E18BF0122044800F0C5FA044B7A
:101B7C00234403F8015C38BD3C4B0008000C0140C9
:101B8C006C030020431E032B9DBF034B1B1813F843
:101B9C00010C0020704700BF6C03002010B501241D
:101BAC00204601210134FFF7CDFFE4B2052000F0FF
:101BBC00E9F8052CF4D110BD10B501242046002104
:101BCC000134FFF7BFFFE4B2052000F0DBF8052C71
:101BDC00F4D110BD7047FEE7FEE7FEE7FEE7704765
:101BEC007047704700F0BCB8014801F03FBE00BF21
:101BFC0050020020014802F0CBB800BF08020020C0
:101C0C00014800F059BE00BF98020020014801F0C5
:101C1C00ABBA00BF980200207FB51022002102A8A9
:101C2C00FEF7DAFA41F61F424FF0804115480023C7
:101C3C00C0E900126322CDE90033C0E903238360BD
:101C4C008023836101F0D4FE08B1FFF7EDFC4FF463
:101C5C0080530C4802A9029301F000FF08B1FFF772
:101C6C00E3FC002369460748CDE9003301F066FF29
:101C7C0008B1FFF7D9FC034801F0CAFD07B05DF8C5
:101C8C0004FB00BF5002002008B54FF416530C485B
:101C9C000C4AC0E9002300230C22C0E90233C0E93E
:101CAC0005230361C36101F0E1FF08B1FFF7BCFC40
:101CBC00BDE8084001220449014802F0D0B900BF38
:101CCC000802002000380140F50100207047000098
:101CDC000268044B9A4204D101220349034802F0E2
:101CEC00BEB9704700380140F50100200802002001
:101CFC007047000038B50E4B05461A784FF47A73CE
:101D0C00B3FBF2F30B4A1068B0FBF3F000F09CF855
:101D1C00044658B90F2D09D8024629464FF0FF301A
:101D2C0000F054F82046044B1D6038BD0120FCE740
:101D3C00700000207800002074000020074A08B5CD
:101D4C001368032043F01003136000F02DF80020FB
:101D5C00FFF7D0FFFFF7CCFF002008BD00200240AA
:101D6C00034A044B11681B780B441360704700BF87
:101D7C007003002070000020014B1868704700BFF2
:101D8C007003002038B50446FFF7F6FF0546631CC8
:101D9C001EBF044B1B78E418FFF7EEFF431BA34256
:101DAC00FAD338BD7000002007490302CA6803F457
:101DBC00E06322F4E0621204120C134343F0BF639D
:101DCC0043F40033CB60704700ED00E0154B30B5A9
:101DDC00DC68C4F30224C4F10703251D042B28BFBF
:101DEC000423062D4FF0FF3594BF0024033C05FA65
:101DFC0003F321EA0303A54022EA0502A3400028CD
:101E0C0043EA0203ACBF00F16040074A4FEA0313F8
:101E1C00DBB2ABBF00F5614000F00F0080F800337F
:101E2C00135430BD00ED00E014ED00E0002807DB9A
:101E3C0001234109034A00F01F00834042F821307E
:101E4C00704700BF00E100E00138B0F1807F0BD299
:101E5C004FF0E023F021054A586182F8231000204E
:101E6C00072298611A6170470120704700ED00E06D
:101E7C0090F821200346022A06D004228263012016
:101E8C00002283F8202070470268C06B116821F093
:101E9C000E011160116821F00101116001211A6C11
:101EAC0001FA02F24260002083F82110E8E70000FA
:101EBC0008B590F82130022B03D004238363012052
:101ECC0008BD03681A6822F00E021A601A6822F024
:101EDC0001021A60174A93421FD0143293421ED04B
:101EEC00143293421DD0143293421DD014329342BB
:101EFC001DD01432934214BF4FF080734FF48013F3
:101F0C000D4A5360012380F82130002380F82030E3
:101F1C00436B03B198470020D2E70123F0E710236D
:101F2C00EEE74FF48073EBE74FF48053E8E74FF4A0
:101F3C008033E5E7080002400000024090F82100E1
:101F4C00704700002DE9F74F00244FF00F0E264686
:101F5C00DFF884C1614B00F104080A6832FA06F517
:101F6C0002D103B0BDE8F08F012505FA06F702EAAD
:101F7C00070537EA020276D14A68032A07D8013AE4
:101F8C00022A00F28380DFE802F091969C00122A6C
:101F9C0000F0948069D8112A00F08A80FF2D94BF3C
:101FAC008146C1464FEA8602D9F8007088BF203AB4
:101FBC000EFA02FA27EA0A0704FA02F21743C9F8E2
:101FCC000070D1F8049019F0805F4CD0DCF8182028
:101FDC0026F0030742F00102CCF81820DCF8182098
:101FEC0007F1804702F00102019207F5803706F0F5
:101FFC00030A019A4FEA8A0ABA680EFA0AFB22EA25
:10200C000B0B374A904260D002F5806290425ED052
:10201C0002F5806290425CD002F58062904214BF5F
:10202C000422032202FA0AF242EA0B02BA609A680C
:10203C0019F4801F14BF2A43AA439A60DA6819F472
:10204C00001F14BF2A43AA43DA605A6819F4003FF0
:10205C0014BF2A43AA435A601A6819F4803F14BF6C
:10206C002A43AA431A60013677E7DFF878904A458D
:10207C000CD014D8A9F580194A4507D009F5702958
:10208C004A4503D0A9F580194A4587D18A68D2B14F
:10209C00012A4FF008040CBF076147617EE7DFF8A7
:1020AC0048904A45F2D009F58039EDE7CC6875E7E0
:1020BC00CC68043472E7CC6808346FE7CC680C3415
:1020CC006CE700246AE7042468E70022AAE70122EF
:1020DC00A8E70222A6E700BF00100240000401405E
:1020EC0000080140000022100000311083681942E2
:1020FC0014BF0120002070470AB101617047090428
:10210C00FBE7016800224B6913F4806310D06FF475
:10211C0080634B612023026380F83D3080F83E20C1
:10212C00036C80F83C2043F00403036401207047E7
:10213C00184670472DE9F84606460F4691461D464F
:10214C004FEA114A3368BAF1010F0CBF5C699C6904
:10215C0027EA0404A4B2B4FA84F46409A14501D0BA
:10216C00002025E06A1CEED0FFF706FE089BC01A83
:10217C00A84201D8002DE5D13368BAF1010F0CBF8C
:10218C005B699B6927EA03039BB2B3FA83F35B0990
:10219C009945D7D1002320220120336386F83D20B6
:1021AC0086F83E30326C86F83C3042F020023264C5
:1021BC00BDE8F8862DE9F04104460F4616469846D0
:1021CC002568686927EA000080B2C0B16B695A05BE
:1021DC0017D52B68202243F400732B606FF48063B7
:1021EC006B610023236384F83D2084F83E30236C1C
:1021FC0043F0040323640023012084F83C30BDE841
:10220C00F081731CDDD0FFF7B7FDA0EB0800B042E6
:10221C0001D8002ED4D123685A6927EA020292B25F
:10222C00002ACDD000232022236384F83D2084F89B
:10223C003E30236C1343DDE770B504460D4616465D
:10224C0023685B691B0601D500201EE02046FFF7C2
:10225C0058FFC8B96A1CF3D0FFF78EFD801BA8424B
:10226C0001D8002DECD123685B6913F08003E7D112
:10227C002022236384F83D2084F83E30226C84F8BD
:10228C003C3042F020022264012070BD70B504463F
:10229C000D46164623685B695B0701D500201EE0DE
:1022AC002046FFF72EFFC8B96A1CF3D0FFF764FD78
:1022BC00801BA84201D8002DECD123685B6913F078
:1022CC000403E7D12022236384F83D2084F83E30B8
:1022DC00226C84F83C3042F020022264012070BD54
:1022EC0070B5044608B9012070BD90F83D3003F07C
:1022FC00FF021BB980F83C20FFF7F4F8242384F884
:10230C003D3023681A6822F001021A601A6842F400
:10231C0000421A601A6822F400421A6001F022FA94
:10232C003F4B65689D4294BF3E4B3F4B98428CBFE0
:10233C0000230123002BD6D1394E3C4BB542B0FBC8
:10234C00F3F388BF4FF496762268516821F03F0171
:10235C0041EA030182BF73434FF47A76B3FBF6F381
:10236C005160116A013321F03F010B431362D169B3
:10237C00431E2B4821F44F41854221F0FF0132D8F6
:10238C006D00B3FBF5F340F6FC700133034242D011
:10239C00C3F30B031943D1611168D4E9073021F061
:1023AC00C00103430B4313609168D4E9030321F488
:1023BC000341034321F0FF010B439360D168D4E93F
:1023CC00053021F0FF0103430B43D3601368002059
:1023DC0043F0010313602023206484F83D30206314
:1023EC0084F83E0080E7A06850B905EB4505B3FBC7
:1023FC00F5F30133C3F30B037BB143F40043C9E79B
:10240C0019206843B3FBF0F30133C3F30B0323B17F
:10241C0043F44043BEE70423BCE70123BAE700BF03
:10242C00A08601007F841E00FF083D0040420F0083
:10243C002DE9F043044685B098460D4691460C9F15
:10244C00FFF79AFC94F83D300646202B04D0022569
:10245C00284605B0BDE8F0830090192301222046E0
:10246C005C49FFF767FE0028F1D194F83C30012B52
:10247C00EDD00123216884F83C300B68DA075EBF8D
:10248C000B6843F001030B600B6823F400630B60D3
:10249C00212384F83D30102384F83E30002323643C
:1024AC00A4F82A80638DC4F8249023854A4BE362F8
:1024BC00E36A082B04D0012B02D013F5803F04D122
:1024CC000B6843F480730B6002E0236B122BF7D084
:1024DC0000223B464FF0011120460096FFF72AFEE2
:1024EC00226840B11368DB0501D40125B0E74FF435
:1024FC0000732364F9E72369B3F5804F21D105F00C
:10250C00FE05156133463A4620463449FFF752FE24
:10251C0005460028E9D1236803905A6903929B6908
:10252C000393039B238DF3B921680A6842F400726C
:10253C000A60202284F83C3084F83D2084F83E3038
:10254C0086E7EB1103F0060343F0F003136120461A
:10255C0033463A462249FFF72DFE0028C5D12368A1
:10256C00EDB21D61CEE7324639462046FFF764FED8
:10257C0040B1236C042BB8D12268136843F4007368
:10258C001360B2E7636A20681A4612F8011B0161F6
:10259C006262628D013A92B26285228DD0F814C0CB
:1025AC00511E89B21CF0040F21850AD049B159780B
:1025BC00023301616362638D023A013B9BB2638516
:1025CC002285324639462046FFF760FE0028A9D006
:1025DC00CFE700BF020010000000FFFF0200010067
:1025EC00080001007047704770477047704770478C
:1025FC00704790F83D2008B5036DD2B283B9C36C17
:10260C000268012B836C05D1DBB21361036D0233BD
:10261C00036508BDC3F307231361036D0133F7E7AB
:10262C00036D012B03D1836C0268DBB2F4E7036DFD
:10263C00022B2FD1222A05D10268136843F4807330
:10264C001360EAE7438D9BB263B1212A0AD1436A36
:10265C00026813F8011B11614362438D013B9BB26D
:10266C004385D6E7438D9BB2002BD2D1212AD0D102
:10267C000268516821F4E0615160116841F4007105
:10268C0011602022036380F83D2080F83E30FFF774
:10269C00AFFFBEE703685A69120644BF00221A61F5
:1026AC00B7E7704770477047002337B546F2A8115B
:1026BC0001932C4B406A1B6890F83D20B3FBF1F35F
:1026CC0023214B4301930368D2B2019941BB016CA6
:1026DC0041F020010164446B0CB10021A162816BBB
:1026EC0009B100258D621D6825F480651D600025EB
:1026FC00458504B1656301B14D63196821F0010191
:10270C00196090F83D10602911D1202380F83D30DC
:10271C00002380F83E300364FFF7C5FF03B030BDE3
:10272C0001990139019119688905CED4D3E702F0DA
:10273C002802282A0ED1196841F001011960196884
:10274C0041F4806119600023036380F83D20FFF79A
:10275C00A9FFE3E7202380F83D30002380F83E30CA
:10276C00F5E700BF7800002010B590F83D2090F8F8
:10277C003E300446102BD9B2D2B2036801D04029A6
:10278C0013D1222A11D1196821F4006119605968FA
:10279C0011F4006106D1602A1EBF202284F83D206E
:1027AC0084F83E100022226307E002F02801282959
:1027BC00EDD10022226384F83D105A6812F40062B5
:1027CC004FD05A68606B22F400625A6090F8213046
:1027DC00012B374B2BD04363FFF76AFB50B12268B8
:1027EC00606B136823F001031360202384F83D30E1
:1027FC00436B9847236C19071FBF2268536823F457
:10280C00E063536094F83D30226CDBB252070DD577
:10281C00282B0BD1274B2022E36200232046236375
:10282C0084F83D2084F83E30FFF7E1FE10BDA06B2C
:10283C004363FFF73DFB0028DCD023685A6951063F
:10284C0005D51A69636A1A70636A01336362226878
:10285C00A06B136823F001031360202384F83D3030
:10286C00C6E794F83D10602915D1202184F83D105D
:10287C0022645A69520605D51A69636A1A70636A2A
:10288C000133636222682046136823F0010313604E
:10289C00FFF709FFAEE75A69500605D51A69636A56
:1028AC001A70636A013363622046FFF7FBFEA1E7EF
:1028BC00B52600080000FFFFF0B5044603688FB092
:1028CC005A68C66A90F83E0094F83D101028C5B2BC
:1028DC00C9B202D0402D40F0E5829F69586910F0D2
:1028EC00010F07D1B6F52A0F02D0B6F12A4F51D1FC
:1028FC000FB0F0BD96054DD5E26AB2F52A0F0CD19A
:10290C000122E26294F83E20402A11D1226D52B984
:10291C00626C02F0FE021A61EAE7E26AB2F12A4F37
:10292C00F0D10822EDE7626C42F00102D2B2F2E77C
:10293C002269B2F5804F1AD194F83D20212A626C9D
:10294C0011D102F0FE021A61626B0AB1926A2AB9C5
:10295C00A26B002ACCD0926A002AC9D05A6842F4E1
:10296C0000625A60C4E742F00102D2B2EBE7226D7A
:10297C0032B9626CD21102F0060242F0F002CAE7E0
:10298C00226D012AB4D1626CD21102F0060242F01F
:10299C00F102C0E7060703D5960501D5626CE4E7A2
:1029AC00860740F1F080960540F1ED8094F83E10DA
:1029BC00E26A256B94F83D00C9B2222840F0DB8016
:1029CC00206D40B9402906D100905A6900929B694C
:1029DC000093009B8CE7216D89B92069B0F5404FBD
:1029EC000DD101915A6901929A690192019A1A6862
:1029FC0042F480721A60236D0133236578E7618D90
:102A0C0089B251B902915A6902929A690292029A58
:102A1C001A6842F400721A6019E0618D89B20129BA
:102A2C0049D112F5803F1BD11A6822F480621A60DA
:102A3C005A6812F400620CD01A6822F480621A6090
:102A4C00002203925A6903929B690393039B002310
:102A5C00D3E704925A6904929A690492049AD7E7CC
:102A6C00082A1CD0202A1AD0122D0DD1012A16D1D9
:102A7C001A6822F480621A60002205925A69059243
:102A8C009B690593059BE2E7102AF1D8864941FA28
:102A9C0002F2D707ECD41A6842F48062EBE71A68AA
:102AAC0022F480621A60002206925A6906929A6990
:102ABC000692069AACE7618D89B2022938D1102AA8
:102ACC0003D87A49D140CE0718D4196841F4006173
:102ADC001960002107915969079199690791079924
:102AEC00196821F48061196059680D05AFD5202A49
:102AFC001BD8072A0ED8012AA9D111E0196841F474
:102B0C0080611960002108915969089199690891AF
:102B1C000899E9E7A2F10801654ACA40D00796D5A1
:102B2C005A6842F480525A6091E712F5803FE3E70D
:102B3C00196841F4806119605968090510D5202A7B
:102B4C0016D8072A06D8012A0AD15A6842F48052AC
:102B5C005A6005E0A2F10801554ACA40D207F4D4E4
:102B6C00002209925A6909929B690993099B6EE7A5
:102B7C0012F5803FE8E700220A925A690A929B6993
:102B8C000A930A9BB4E67F0740F194805E68360591
:102B9C003FF5AEAE070600F004063ED550053CD519
:102BAC00002E3DD194F83D20258D94F83E10D2B2E4
:102BBC00E06AC9B2C5B9212A18D1082858D02028F2
:102BCC0056D010F5803F53D05A6822F4E0625A6018
:102BDC0011232363002384F83E302023204684F8FD
:102BEC003D30FFF7FFFC83E6212A05D040297FF416
:102BFC007FAE222A7FF47CAE628D92B21AB95A68EB
:102C0C0022F48062ADE694F83E20402A16D120468C
:102C1C000FB0BDE8F040FFF7ECBC002E3FF468AEFF
:102C2C0097057FF565AE212939D1E16A94F83D20ED
:102C3C00212A7FF45DAE628D92B24AB1626A12F8BB
:102C4C00011B19616262638D013B9BB263854FE688
:102C5C0008290DD020290BD011F5803F08D05968D8
:102C6C0021F4E06159601123236384F83E20B4E71A
:102C7C005A68204622F4E0625A601A6842F40072E4
:102C8C001A6000232022236384F83D2094F83E2010
:102C9C0084F83E30402AA4D1FFF7AAFC28E6402D48
:102CAC007FF426AEB3E700BFEBFFFEFF140001007C
:102CBC000101000159680E053FF51AAE450600F0FA
:102CCC00040140F18680500540F18380002940F0DA
:102CDC00838094F83D20222A7FF40AAEE06A628D4C
:102CEC0092B2032A14D91A69636A1A70636A01339F
:102CFC006362638D013B9BB26385638D9BB2032B37
:102D0C007FF4F6AD2268536823F480635360EFE5DB
:102D1C00E56A022D3FF473AF012A3FF670AF0B91B9
:102D2C0046F2A811784A1268B2FBF1F202EB820269
:102D3C000B920B9A013A0B920B99D1B9226C20464B
:102D4C0042F0200222645A6822F4E0625A601A6946
:102D5C00636A1A70636A01336362638D013B9BB2D1
:102D6C006385202384F83D3084F83E10FFF79AFCED
:102D7C00BEE51A6812F40072DBD1196821F4806187
:102D8C001960596821F4E06159601969636A197016
:102D9C00636A01336362638D013B9BB263852023BD
:102DAC0084F83D3094F83E3084F83E20402B04D11A
:102DBC0022632046FFF775FC9AE5082801D02028ED
:102DCC0001D1002300E0122320462363FFF70BFC04
:102DDC008EE500293FF48CAD92057FF589ADE26A52
:102DEC00608D616A80B2042809D15A6822F480622D
:102DFC005A601B690B70636A0133636223E7608D51
:102E0C0080B203280CD15868042A20F480605860E2
:102E1C00EFD0022AEDD01A6822F480621A60E8E73B
:102E2C00608D80B20228E4D1042A33D007D8012A5D
:102E3C0007D0022A2ED0186840F4007004E0102A43
:102E4C00F9D1186820F4806018601B690B70616AF6
:102E5C004B1C6362638D013B9BB2638523681B69CA
:102E6C004B70636A216801336362638D013B9BB2D3
:102E7C0063854B6823F440734B60202384F83D300A
:102E8C0094F83E30402B4FF0000384F83E3005D1CF
:102E9C0023638EE7186840F48060D5E7082A90D049
:102EAC00202A8DE7206C10B30025586987072DD593
:102EBC0096052BD5226C02B19D6994F83D2002F049
:102ECC002802282A16D15A682F0622F480625A60EA
:102EDC004FF0000385F00401204654BFA289228BD9
:102EEC00C1F3800184F83C30FFF780FB00E59D695D
:102EFC005869DBE700220C9259690C919B6984F8A4
:102F0C003C200C930C9BF3E478000020C60640F1A7
:102F1C00B180950540F1AE8094F83D505A68EDB201
:102F2C0022F4E0625A6000220D925A690D921A68DE
:102F3C0042F001021A600D9A1A6822F480621A603B
:102F4C005A68100520D505F0F702222A4AD1A06B49
:102F5C000268526892B26285628D92B21AB1226C8A
:102F6C0042F0040222645A6822F400625A60FEF7AE
:102F7C00E5FF012808D0A06B794B4363FEF798FF5F
:102F8C0010B1A06B436B9847638D9BB213B323684E
:102F9C005A69510709D51A69636A1A70636A013351
:102FAC006362638D013B9BB2638523685A69520649
:102FBC0009D51A69636A1A70636A01336362638D97
:102FCC00013B9BB26385638D9BB21BB1236C43F0B9
:102FDC0004032364236C13B320460FB0BDE8F04008
:102FEC00FFF7C2BB606B0268526892B26285628D59
:102FFC0092B21AB1226C42F0040222645A6822F492
:10300C0000625A60FEF79AFF0128BDD0606B544BEA
:10301C004363FEF74DFF0028B6D0606BB2E72A2D54
:10302C0006D123632823204684F83D30FFF7DDFAD0
:10303C0094F83D30282B0CD14A4B2022E36200231C
:10304C002046236384F83D2084F83E30FFF7CFFA06
:10305C004EE4236B222B02D0222D7FF449AC0023AB
:10306C002022236384F83D2084F83E302046FFF76D
:10307C00BCFA3DE401F0F701212900F0040535D13B
:10308C00070627D5560525D53DBB94F83D00628D26
:10309C00C0B292B2002A3FF42BAC626A12F8015B08
:1030AC001D616262628D013A92B26285628D92B24A
:1030BC00002A7FF41DAC29287FF41AAC5A682046EC
:1030CC0022F480625A602823216384F83D30FFF794
:1030DC008BFA0DE4002D3FF40BAC95057FF508AC95
:1030EC00628D92B2002A3FF403ACA7E5400627D5C7
:1030FC00510525D53DBB94F83D20618DD2B289B2E6
:10310C0000293FF4F5AB1969636A1970636A0133DE
:10311C006362638D013B9BB26385638D9BB2002B15
:10312C007FF4E6AB2A2A7FF4E3AB2268536823F4DE
:10313C008063536022232363282384F83D3095E772
:10314C00002D3FF4D5AB92057FF5D2AB628D92B2D8
:10315C00002A3FF4CDAB1A69636A1A704BE600BFC4
:10316C00B52600080000FFFFF8B5036804465F6948
:10317C005E6890F83E2017F48075D2B20AD016F42F
:10318C00807507D06FF4807101255961196841F47D
:10319C0000411960B80506D5F10542BF6FF4007106
:1031AC0045F002055961780536D5F10534D5608DA9
:1031BC0094F83D10202AD4F830C080B2C9B25FD147
:1031CC0000285DD101F0F700212804D0282957D11F
:1031DC00BCF1210F54D194F83D20E16AD2B20829F8
:1031EC0001D020292AD1282A28D12E4A2046E26251
:1031FC005A6822F4E0625A606FF480625A611A686D
:10320C0022F480621A6000232022236384F83D207C
:10321C0084F83E30FFF7EBF93A053FD5F3053DD581
:10322C006FF40062236845F008055A61236C204650
:10323C002B432364BDE8F840FFF796BA212A1BD133
:10324C001849E16222630021202284F83D2084F891
:10325C003E105A6822F4E0625A606FF480625A6140
:10326C001A6822F480621A605A69100648BF196104
:10327C002046FFF7B9F9CFE76FF480625A61CBE7CC
:10328C006FF48061102A596145F0040501D0402A81
:10329C00C2D11A6842F400721A60BDE7002DC5D184
:1032AC00F8BD00BF0000FFFF2DE9F341054638B320
:1032BC000368DB0710D42B689F075ED42B681907B3
:1032CC0000F195802B685A0700F1C180EB69002B47
:1032DC0040F02C81002029E0904C636803F00C0333
:1032EC00042B07D0636803F00C03082B0AD1636826
:1032FC00DE0307D523689C03DDD56B68002BDAD180
:10330C00012013E06B68B3F5803F12D1236843F4BE
:10331C0080332360FEF730FD064623689803CAD439
:10332C00FEF72AFD801B6428F7D9032002B0BDE804
:10333C00F0819BB9236823F480332360236823F442
:10334C0080232360FEF718FD064623689903B2D547
:10335C00FEF712FD801B6428F7D9E6E7B3F5A02F22
:10336C00236803D143F480232360CFE723F4803315
:10337C002360236823F48023CBE7684C636813F045
:10338C000C0F07D0636803F00C03082B10D1636893
:10339C00DA030DD423689B0702D52B69012BAFD11F
:1033AC0023686A6923F0F80343EAC203236085E7C4
:1033BC002A695B4B6AB101221A60FEF7DDFC0646F6
:1033CC0023689F07ECD4FEF7D7FC801B0228F7D9A3
:1033DC00ABE71A60FEF7D0FC0646236898077FF52A
:1033EC006DAFFEF7C9FC801B0228F6D99DE7AA69D0
:1033FC004A4E4B4BE2B10122C3F88024FEF7BCFCD1
:10340C000446736A9B070DD54FF4FA52454B1B6863
:10341C00B3FBF2F3019300BF019B5A1E0192002BE8
:10342C00F9D14FE7FEF7A8FC001B0228E9D97CE78D
:10343C00C3F88024FEF7A0FC0446736A9F077FF54F
:10344C0041AFFEF799FC001B0228F6D96DE7334C0F
:10345C00E369D80024D40127E36943F08053E36186
:10346C00E36903F080530093009B2F4E3368D9051A
:10347C0018D5EB68012B26D1236A43F00103236294
:10348C00FEF77AFC41F288380646236A9B073FD543
:10349C00002F3FF41BAFE36923F08053E36115E782
:1034AC000027E2E7336843F480733360FEF764FC73
:1034BC0080463368DA05DCD4FEF75EFCA0EB08002E
:1034CC006428F6D931E7ABB9236A41F2883823F086
:1034DC0001032362236A23F004032362FEF74CFCEE
:1034EC000646236A9807D3D5FEF746FC801B404559
:1034FC00F7D91AE7052B236A03D143F0040323629F
:10350C00BAE723F001032362236A23F00403B6E72E
:10351C00FEF732FC801B4045B7D906E7001002408D
:10352C000000424278000020007000402A4C626883
:10353C0002F00C02082A3ED00022022B274B1A66FE
:10354C002CD1FEF719FC06462368990120D42B6A6E
:10355C00B3F5803F05D16268A96822F400320A43B2
:10356C006260696A62680B4322F47412134301228D
:10357C0063601A4B1A66FEF7FFFB054623689A0137
:10358C003FF5A8AEFEF7F8FB401B0228F6D9CCE6B7
:10359C00FEF7F2FB801B0228D6D9C6E6FEF7ECFB41
:1035AC00054623689B017FF595AEFEF7E5FB401BB6
:1035BC000228F6D9B9E6012B3FF4A2AE60682B6A5B
:1035CC0000F480329A427FF49BAE6B6A00F4701068
:1035DC00C01A18BF0120A9E60010024000004242A8
:1035EC000D4A536803F00C01082912D10B48C3F3A0
:1035FC008341DB03405C09D55368094AC3F340435C
:10360C005043084AD35CB0FBF3F07047064B584369
:10361C0070470348704700BF00100240444B00083D
:10362C0000127A00424B000800093D002DE9F041E0
:10363C000D46044610B90120BDE8F081444A1368D8
:10364C0003F007038B4228D321688E0730D4CA07B6
:10365C0043D43F4A136803F00703AB4265D8226892
:10366C003C4D12F0040F6CD1130706D56B68226920
:10367C0023F4605343EAC2036B60FFF7B1FF6B683E
:10368C00354AC3F30313D35CD840344B1860344B26
:10369C001868FEF72FFB0020CEE7136823F0070312
:1036AC000B431360136803F007038B42C3D1CBE7C2
:1036BC00284B11F0040F1EBF5A6842F4E0625A60A6
:1036CC00080742BF5A6842F460525A605A68A068B0
:1036DC0022F0F00202435A60B9E762681D4E012ADB
:1036EC0033681AD113F4003FA5D0736841F28838BF
:1036FC0023F0030313437360FEF73EFB0746736826
:10370C00626803F00C03B3EB820FA2D0FEF734FB1C
:10371C00C01B4045F3D903208EE7022A02D113F0D7
:10372C00007FE1E713F0020FDEE7136823F00703D5
:10373C002B431360136803F00703AB427FF47BAF9A
:10374C008DE76B68E16823F4E0630B436B608BE7F8
:10375C0000200240001002405C4B00087800002062
:10376C0074000020044B054A5B68C3F30223D35C4E
:10377C00034A1068D840704700100240544B0008B0
:10378C0078000020044B054A5B68C3F3C223D35C6A
:10379C00034A1068D840704700100240544B000890
:1037AC0078000020036A10B5046A23F00A0324F0A1
:1037BC0001040462074C1943A04202BF046A24F0BE
:1037CC0004040462846924F0F00444EA0212826165
:1037DC00016210BD002C0140036A10B5046A23F08D
:1037EC00A00324F010040462084C43EA0111A04227
:1037FC0002BF046A24F040040462846924F4704417
:10380C0044EA02328261016210BD00BF002C01400B
:10381C0090F83D30012B20D1022380F83D30036815
:10382C00DA6842F00102DA600D4A93420AD0B3F131
:10383C00804F07D0A2F59432934203D002F58062F8
:10384C00934204D19A6802F00702062A03D01A6840
:10385C0042F001021A60002070470120704700BF3F
:10386C00002C01407047704770477047036870B573
:10387C00DD681E690446B1070DD5AA070BD56FF09C
:10388C0002021A61012202779B699B0769D0FFF73C
:10389C00EAFF00232377710710D56A070ED56FF066
:1038AC000402236820461A61022222779B6913F4D2
:1038BC00407F5CD0FFF7D7FF0023237733070FD56A
:1038CC0028070DD56FF00802236820461A610422E0
:1038DC002277DB69990750D0FFF7C5FF00232377C8
:1038EC00F20610D5EB060ED56FF0100223682046B9
:1038FC001A6108222277DB6913F4407F43D0FFF76B
:10390C00B2FF00232377F00708D5E90706D56FF03F
:10391C000102236820461A61FDF7D6FD320608D550
:10392C002B0606D56FF08002236820461A6100F042
:10393C0034F9700608D5690606D56FF04002236885
:10394C0020461A61FFF791FFB20622D5AB0620D5AF
:10395C006FF0200223682046BDE870401A6100F029
:10396C001BB9FFF77FFF2046FFF77EFF91E7FFF7BC
:10397C0079FF2046FFF778FF9EE7FFF773FF20469D
:10398C00FFF772FFAAE7FFF76DFF2046FFF76CFF0A
:10399C00B7E770BD154A036890420AD0B0F1804F6A
:1039AC0007D0A2F59432904203D002F58062904287
:1039BC0007D14A6823F070031343CA6823F4407399
:1039CC0013434A6923F0800313438A68C2620A686E
:1039DC008262064A904204BF0A690263026842F09E
:1039EC00040202600122426103607047002C014016
:1039FC0010B5044630B390F83D3003F0FF021BB90C
:103A0C0080F83C20FDF7F2FD0223206884F83D305D
:103A1C00211DFFF7BFFF0123002084F8463084F8F6
:103A2C003E3084F83F3084F8403084F8413084F8DC
:103A3C00423084F8433084F8443084F8453084F8BC
:103A4C003D3010BD0120FCE710B584680A4324F416
:103A5C007F4442EA03222243826010BD10B590F8E5
:103A6C003C300446012B4FF0020065D0012284F853
:103A7C003D00206884F83C20836823F47F4323F0C6
:103A8C00770383600B68602B42D025D8402B49D03C
:103A9C0016D8202B0DD00AD833F0100109D00123F1
:103AAC0084F83D30002384F83C30104610BD302B98
:103ABC00F5D1826822F07002134343F007031BE038
:103ACC00502BECD1CA684968FFF76CFE836823F071
:103ADC00700343F057030FE0B3F5805F0DD0B3F5DF
:103AEC00005F0CD0702BDAD1CB68D1E90121FFF744
:103AFC00ABFF836843F0770383600022CFE7CB688A
:103B0C00D1E90121FFF7A0FF836843F48043F3E779
:103B1C00CA684968FFF760FE836823F0700343F0BE
:103B2C006703E9E7CA684968FFF73CFE836823F03E
:103B3C00700343F04703DFE70246B6E730B590F871
:103B4C003C300246012B4FF0020022D0136882F861
:103B5C003D005C680D6824F070042C4398685C6030
:103B6C000C4CA3420AD0B3F1804F07D0A4F5943487
:103B7C00A34203D004F58064A34204D1496820F029
:103B8C008000014399600123002082F83D3082F8C7
:103B9C003C0030BD002C014070477047026802F1B8
:103BAC000C0353E8003F23F490730C3242E80031CD
:103BBC0002680029F2D102F1140353E8003F23F00C
:103BCC00010302F1140C4CE800310029F3D1036B12
:103BDC00012B0BD102F10C0353E8003F23F010032F
:103BEC0002F10C0C4CE800310029F3D1202380F8B1
:103BFC00423000230363704710B504460368C16864
:103C0C001A6922F440520A431A6182680069D96821
:103C1C000243606921F4B05121F00C0102430A43C4
:103C2C00DA605A69A16922F440720A435A610E4A59
:103C3C00934215D1FFF7A6FD192343436268206810
:103C4C009200B3FBF2F36422B3FBF2F102FB1133EB
:103C5C001B013233B3FBF2F303EB0113836010BD92
:103C6C00FFF780FDE8E700BF0038014010B50446BF
:103C7C0048B390F8413003F0FF021BB980F84020A4
:103C8C00FDF770FC2423226884F84130D368204669
:103C9C0023F40053D360FFF7AFFF236800201A69A9
:103CAC0022F490421A615A6922F02A025A61DA68A7
:103CBC0042F40052DA602023606484F8413084F8C6
:103CCC004230606310BD0120FCE708B50023406A58
:103CDC00C385FDF7FDFF08BD704790F8423007B56E
:103CEC00222B42D181680268B1F5805F836A3FD193
:103CFC00016900293FD15268C2F3080223F8022B54
:103D0C008362C38D013B9BB2C385002B2DD102680E
:103D1C00D16821F02001D160D16821F48071D1608B
:103D2C00516921F001015161202280F84220436346
:103D3C00026B012A026828D1036302F10C0353E8D9
:103D4C00003F23F0100302F10C0C4CE80031002969
:103D5C00F3D11368DB0605D5019113680193536801
:103D6C000193019B818DFFF7B7FF03B05DF804FB56
:103D7C0039B9016929B95268D2B21A70836A013310
:103D8C00BEE7526802F07F02F7E7FDF779FBECE73C
:103D9C00036873B51A6804461607D9685D6908D1BB
:103DAC00960668D58D0666D502B0BDE87040FFF763
:103DBC0094BF05F0010001F4907505435BD0D60764
:103DCC0005D5CD0542BF636C43F001036364530713
:103DDC0004D518B1636C43F002036364960704D5F1
:103DEC0018B1636C43F004036364150707D501F045
:103DFC00200303431EBF636C43F008036364636CCE
:103E0C00002B32D0920604D58B0602D52046FFF744
:103E1C0064FF266820467369626C03F0400302F06D
:103E2C00080253EA020522D0FFF7B8FE73695E065A
:103E3C0018D5226802F1140353E8003F23F0400325
:103E4C00143242E800310029F3D1E06B50B1764BCB
:103E5C004363FEF72DF840B1E06B436B02B0BDE855
:103E6C00704018472046FDF733FF02B070BDFDF7D8
:103E7C002FFF6564F9E7206B012840F09980D50687
:103E8C0040F19680C80640F19380002201921A6896
:103E9C0001925A680192019A5969A28D490654D52A
:103EAC00E06B0168496889B2002946D0914244D23E
:103EBC008269E185202A36D003F10C0252E8002FEA
:103ECC0022F4807203F10C0040E800210029F3D1A8
:103EDC0003F1140252E8002F22F0010203F1140046
:103EEC0040E800210029F3D103F1140252E8002F1D
:103EFC0022F0400203F1140040E800210029F3D124
:103F0C00202284F84220216303F10C0252E8002F96
:103F1C0022F0100203F10C0040E800210029F3D13B
:103F2C00E06BFDF7A5FF02236363E38DA18DC91A36
:103F3C0089B22046FFF7D0FE97E7914295D183696D
:103F4C00202B92D102236363F3E7E18DE08D89B2DC
:103F5C0080B2002889D0511A89B2002985D003F18A
:103F6C000C0252E8002F22F4907203F10C0545E884
:103F7C0000200028F3D103F1140252E8002F22F0A4
:103F8C00010203F1140545E800200028F3D120229A
:103F9C0084F84220206303F10C0252E8002F22F037
:103FAC00100203F10C0545E800200028F3D1C9E705
:103FBC00160628D50D0626D594F84120212A7FF423
:103FCC0054AFA168226AB1F5805F17D12169A9B9F4
:103FDC0032F8021BC1F3080159602262E28C013AEB
:103FEC0092B2E284002A7FF440AFDA6822F08002B9
:103FFC00DA60DA6842F04002DA6036E7511C21627E
:10400C0012785A60EAE750067FF52FAF4A067FF523
:10401C002CAFDA68204622F04002DA60202384F8C4
:10402C004130FDF753FE20E7D73C00080023C28542
:10403C00436422238285026980F8423081620368DE
:10404C001AB1DA6842F48072DA605A69002042F0E0
:10405C0001025A61DA6842F02002DA60704770B4EB
:10406C0090F84260202E06D141B13AB1002404638D
:10407C0070BCFFF7DBBF022070BC70470120FBE770
:10408C0070470000FFF7FCFF0B480C490C4A00235B
:10409C0002E0D458C4500433C4188C42F9D3094AF2
:1040AC00094C002301E013600432A242FBD3FCF75D
:1040BC006BF8FDF70BFB7047000000207C00002024
:1040CC00B84B00087C00002074030020FEE70000C1
:1040DC00F8B500BFF8BC08BC9E467047F8B500BFE9
:0840EC00F8BC08BC9E467047B9
:1040F400F44A0008FA4A0008004B0008064B00087E
:1041040000000000000000000000000000000000AB
:10411400000000F800000000000000333000000040
:1041240000100C06100C0600000000000000000047
:1041340040C07840C0784000043F04043F040400B9
:10414400007088FC08300000001820FF211E0000C9
:10415400F008F000E018000000211C031E211E00DE
:1041640000F00888700000001E2123241927211064
:1041740010160E0000000000000000000000000007
:10418400000000E0180402000000000718204000AE
:1041940000020418E000000000402018070000009E
:1041A400404080F0804040000202010F0102020002
:1041B400000000F0000000000101011F01010100E6
:1041C400000000000000000080B07000000000004B
:1041D40000000000000000000001010101010101D4
:1041E400000000000000000000303000000000006B
:1041F4000000000080601804006018060100000040
:1042040000E010080810E000000F102020100F003C
:10421400001010F8000000000020203F20200000C3
:10422400007008080888700000302824222130001B
:1042340000300888884830000018202020110E0023
:104244000000C02010F8000000070424243F2400CC
:1042540000F80888880808000019212020110E00A1
:1042640000E0108888180000000F112020110E00B3
:1042740000380808C83808000000003F00000000AB
:104284000070880808887000001C222121221C006C
:1042940000E010080810E0000000312222110F0095
:1042A400000000C0C000000000000030300000002A
:1042B400000000800000000000008060000000009A
:1042C40000008040201008000001020408102000B3
:1042D40040404040404040000404040404040400FE
:1042E4000008102040800000002010080402010093
:1042F400007048080808F000000000303601000093
:10430400C030C828E810E0000718272423140B0045
:104314000000C038E0000000203C230202273820BF
:1043240008F8888888700000203F202020110E00A3
:10433400C03008080808380007182020201008009A
:1043440008F808080810E000203F202020100F0083
:1043540008F88888E8081000203F2020232018004F
:1043640008F88888E8081000203F200003000000B7
:10437400C03008080838000007182020221E020058
:1043840008F808000008F808203F210101213F2017
:10439400000808F8080800000020203F2020000042
:1043A40000000808F8080800C08080807F00000032
:1043B40008F888C028180800203F2001263820006B
:1043C40008F8080000000000203F202020203000D2
:1043D40008F8F800F8F80800203F003F003F2000EC
:1043E40008F830C00008F808203F200007183F00F4
:1043F400E01008080810E0000F10202020100F0023
:1044040008F808080808F000203F21010101000015
:10441400E01008080810E0000F18242438504F005A
:1044240008F8888888887000203F2000030C30201A
:1044340000708808080838000038202121221C0058
:10444400180808F8080818000000203F20000000A1
:1044540008F808000008F808001F202020201F008A
:104464000878880000C83808000007380E010000EA
:10447400F80800F80008F800033C0700073C0300B4
:10448400081868808068180820302C03032C30201A
:104494000838C800C83808000000203F2000000089
:1044A40010080808C83808002038262120201800E1
:1044B400000000FE020202000000007F40404000B5
:1044C400000C30C000000000000000010638C000ED
:1044D40000020202FE000000004040407F00000095
:1044E40000000402020204000000000000000000BA
:1044F40000000000000000008080808080808080B8
:10450400000202040000000000000000000000009F
:1045140000008080808000000019242222223F2095
:1045240008F8008080000000003F112020110E00D8
:104534000000008080800000000E11202020110067
:10454400000000808088F800000E112020103F2019
:104554000000808080800000001F2222222213009D
:10456400008080F0888888180020203F20200000E8
:104574000000808080808000006B9494949360009D
:1045840008F8008080800000203F210000203F20A8
:1045940000809898000000000020203F20200000A8
:1045A400000000809898000000C08080807F000098
:1045B40008F8000080808000203F24022D30200075
:1045C400000808F8000000000020203F2020000020
:1045D4008080808080808000203F20003F20003F3A
:1045E4008080008080800000203F210000203F2048
:1045F4000000808080800000000E112020110E0039
:10460400808000808000000080FFA12020110E0027
:104614000000008080808000000E112020A0FF8018
:10462400808080008080800020203F2120000100C5
:10463400000080808080800000332424242419001A
:10464400008080E0808000000000001F2020000027
:104654008080000000808000001F202020103F2068
:10466400808080000080808000010E3008060100F8
:1046740080800080008080800F300C030C300F009D
:1046840000808000808080000020312E0E312000C8
:10469400808080000080808080818E7018060100F8
:1046A40000808080808080000021302C2221300016
:1046B40000000000807C020200000000003F404037
:1046C40000000000FF00000000000000FF000000E8
:1046D4000002027C800000000040403F0000000017
:1046E40000060101020204040000000000000000B2
:1046F40000000000000000005F0000000007000749
:104704000000147F147F1400242A7F2A120023132C
:104714000864620036495522500000050300000079
:10472400001C224100000041221C0000082A1C2A0F
:10473400080008083E08080000503000000008087F
:10474400080808000060600000002010080402004F
:104754003E5149453E0000427F40000042615149BC
:1047640046002141454B31001814127F10002745A3
:10477400454539003C4A49493000017109050300A7
:10478400364949493600064949291E000036360093
:1047940000000056360000000008142241001414E2
:1047A40014141400412214080000020151090600E7
:1047B400324979413E007E1111117E007F494949F9
:1047C40036003E41414122007F4141221C007F4985
:1047D400494941007F09090101003E41415132002C
:1047E4007F0808087F0000417F4100002040413FCE
:1047F40001007F08142241007F40404040007F02B6
:1048040004027F007F0408107F003E4141413E00C6
:104814007F09090906003E4151215E007F091929DB
:10482400460046494949310001017F0101003F40EA
:1048340040403F001F2040201F007F2018207F00A1
:1048440063140814630003047804030061514945A8
:10485400430000007F414100020408102000414150
:104864007F00000004020102040040404040400078
:104874000001020400002054545478007F4844444A
:104884003800384444442000384444487F003854B5
:1048940054541800087E09010200081454543C00C2
:1048A4007F080404780000447D4000002040443D1B
:1048B4000000007F1028440000417F4000007C0479
:1048C400180478007C080404780038444444380010
:1048D4007C1414140800081414187C007C080404C4
:1048E4000800485454542000043F444020003C40F5
:1048F40040207C001C2040201C003C4030403C00F8
:104904004428102844000C5050503C004464544C3B
:10491400440000083641000000007F000000004110
:10492400360800000804081008004B65793A204C4A
:1049340069676874204F4646004B65793A204C6994
:10494400676874204F4E004B65793A2046616E20AB
:104954004F4646004B65793A2046616E204F4E0023
:104964004B65793A20536F636B6574204F4646005C
:104974004B65793A20536F636B6574204F4E004B3F
:1049840065793A205370617265204F4646004B6545
:10499400793A205370617265204F4E004B65793A25
:1049A40020414C4C204F4E004B65793A20414C4CF1
:1049B400204F4646004C696768743A204F4E004CBD
:1049C400696768743A204F46460046616E3A204F44
:1049D4004E0046616E3A204F464600536F636B6546
:1049E400743A204F4E00536F636B65743A204F4600
:1049F400460053706172653A204F4E0053706172E5
:104A0400653A204F464600414C4C3A204F4E0041F7
:104A14004C4C3A204F464600556E6B6E6F776E20B5
:104A2400434D44210053797374656D20526561646C
:104A34007900536D61727420486F6D6500202043C6
:104A44006F6E74726F6C0053544D33324631303391
:104A54004338543600576F6B77692053696D756C12
:104A64006174696F6E0056312E30004F4E20003D48
:104A74003D3D20536D61727420486F6D6520436F16
:104A84006E74726F6C203D3D3D00434D443A2025C9
:104A9400730025642E25733A2573004B65793A31EA
:104AA4002D343D546F67676C6520353D416C6C4F08
:104AB4004E004B65793A363D416C6C4F464620209A
:104AC400554152543D566F6963650052756E3A25DF
:104AD4006C757320393630302D384E310053544DB7
:104AE4003332463130332037324D487A204F4B0031
:104AF4004C49474854002046414E2000534F434BF5
:104B04005400535041524500000801400100000088
:104B140000080140020000000008014004000000F9
:104B240000080140080000000008014000010000E6
:104B34000008014010000000002000400080010235
:104B440002030405060708090A0B0C0D0E0F1010CA
:104B54000000000001020304000000000000000047
:104B64000102030406070809232D302B200000004E
:104B7400686C4C0065666745464700003031323347
:104B84003435363738394142434445460000000045
:104B940030313233343536373839616263646566AF
:044BA400000000000D
:084BA800E8B9FF7F01000000E5
:044BB0007501000883
:044BB4004D010008A7
:104BB80004000020000000009800002000010020F0
:104BC8006801002000000000000000000000000054
:104BD80000000000000000000000000000000000CD
:104BE80000000000000000000000000000000000BD
:104BF80000000000000000000000000000000000AD
:104C080057616974696E672E2E2E0000000000003F
:104C1800000000000000000000000000000000008C
:0C4C2800010000001000000000127A00E3
:040000050800010CE2
:00000001FF
